:020000040000FA
:100000000C9463000C948B000C948B000C948B006C
:100010000C948B000C948B000C948B000C948B0034
:100020000C948B000C948B000C948B000C94820924
:100030000C948B000C948B000C948B000C948B0014
:100040000C94E0080C948B000C9450090C942A0931
:100050000C948B000C948B000C948B000C948B00F4
:100060000C943E0A0C948B00000000002400270032
:100070002A0000000000250028002B0000000000DE
:1000800023002600290004040404040404040202DA
:100090000202020203030303030301020408102007
:1000A0004080010204081020010204081020000012
:1000B0000008000201000003040700000000000027
:1000C0000000990BAB1211241FBECFEFD8E0DEBFAA
:1000D000CDBF11E0A0E0B1E0E8E1FCE202C0059094
:1000E0000D92AA39B107D9F723E0AAE9B1E001C01E
:1000F0001D92AB3FB207E1F710E0C2E6D0E004C0CA
:100100002197FE010E94FE13C136D107C9F70E9454
:10011000990C0C94FF150C94000096E0899FD00177
:100120001124AA58BC4F90967C936E935F9791E0F0
:1001300091969C939197E091E303F091E403909161
:10014000E203992339F0309751F0811108C0809172
:1001500092030994309719F05C968C91FACF089528
:10016000833081F028F4813099F08230A9F008952D
:100170008730A9F08830C9F08430B1F480918000D4
:100180008F7D03C0809180008F77809380000895D9
:1001900084B58F7784BD089584B58F7DFBCF809122
:1001A000B0008F778093B00008958091B0008F7D6C
:1001B000F9CFCF93DF93282F30E0F901E255FF4FBD
:1001C0008491F901E656FF4FD491F901EA57FF4FA8
:1001D000C491CC23A1F081110E94B000EC2FF0E07B
:1001E000EE0FFF1FE458FF4FA591B491EC91ED2362
:1001F00081E090E009F480E0DF91CF91089580E004
:1002000090E0FACF1F93CF93DF93282F30E0F901CE
:10021000E255FF4F8491F901E656FF4FD491F90161
:10022000EA57FF4FC491CC23A9F0162F81110E94E9
:10023000B000EC2FF0E0EE0FFF1FEE58FF4FA5913E
:10024000B4918FB7F894EC91111108C0D095DE23CA
:10025000DC938FBFDF91CF911F910895DE2BF8CFF4
:10026000CF93DF9390E0FC01E656FF4F24918A572D
:100270009F4FFC0184918823C9F090E0880F991F5B
:10028000FC01E859FF4FA591B491FC01EE58FF4FD6
:10029000C591D49161110DC09FB7F8948C912095B0
:1002A00082238C938881282328839FBFDF91CF915D
:1002B0000895623051F49FB7F8943C91822F809555
:1002C00083238C93E8812E2BEFCF8FB7F894EC919A
:1002D0002E2B2C938FBFEACF8E3008F08E50877074
:1002E000806480937C0080917A00806480937A009F
:1002F00080917A0086FDFCCF809178009091790002
:1003000008953FB7F8948091220290912302A09122
:100310002402B091250226B5A89B05C02F3F19F0F5
:100320000196A11DB11D3FBFBA2FA92F982F882775
:10033000BC01CD01620F711D811D911D42E0660F50
:10034000771F881F991F4A95D1F708958F929F9222
:10035000AF92BF92CF92DF92EF92FF924B015C017E
:100360000E9481016B017C010E9481016C197D0951
:100370008E099F09683E734081059105A8F321E02D
:10038000821A9108A108B10888EEC80E83E0D81E31
:10039000E11CF11C81149104A104B10429F7FF9020
:1003A000EF90DF90CF90BF90AF909F908F90089587
:1003B0002FB7F89460911E0270911F028091200265
:1003C000909121022FBF08950F931F93CF93DF9336
:1003D000C82FD62F86E0C89FF0011124EA58FC4FA1
:1003E00011A2878D90A181309105F1F058F08230F3
:1003F0009105F1F1039709F440C0DF91CF911F916E
:100400000F9108956623C9F361E070E08C2F0E947C
:100410008D000E94D8016093CE037093CF03809328
:10042000D0039093D103E9CF0E94D8010091CE036D
:100430001091CF032091D0033091D103AB01BC01C7
:10044000401B510B620B730B8091E0039091E10311
:10045000B0E0A0E084179507A607B70748F462E06C
:1004600070E08C2FDF91CF911F910F910C948D0034
:1004700063E070E0D111C1CFF4CF70E060E0F1CF64
:10048000089508950895AF92BF92CF92DF92EF92B0
:10049000FF920F931F93CF93DF936C017B018B012E
:1004A000040F151FEB015E01AE18BF08C017D1077E
:1004B00059F06991D601ED91FC910190F081E02D08
:1004C000C6010995892B79F7C501DF91CF911F915D
:1004D0000F91FF90EF90DF90CF90BF90AF90089575
:1004E000FC01538D448D252F30E0842F90E0821B3A
:1004F000930B541710F0CF96089501970895FC01BF
:10050000918D828D981761F0A28DAE0FBF2FB11D16
:100510005D968C91928D9F5F9F73928F90E008956E
:100520008FEF9FEF0895FC01918D828D981731F028
:10053000828DE80FF11D858D90E008958FEF9FEF7C
:100540000895FC01918D228D892F90E0805C9F4F52
:10055000821B91098F739927089586E992E00E9482
:10056000A10221E0892B09F420E0822F089580E088
:1005700090E0892B29F00E94AD0281110C940000BB
:100580000895FC01A48DA80FB92FB11DA35ABF4F28
:100590002C91848D90E001968F739927848FA68982
:1005A000B7892C93A089B1898C91837080648C93D6
:1005B000938D848D981306C00288F389E02D808185
:1005C0008F7D80830895EF92FF920F931F93CF93B7
:1005D000DF93EC0181E0888F9B8D8C8D98131AC07E
:1005E000E889F989808185FF15C09FB7F894EE8965
:1005F000FF896083E889F9898081837080648083C2
:100600009FBF81E090E0DF91CF911F910F91FF900C
:10061000EF900895F62E0B8D10E00F5F1F4F0F73B4
:100620001127E02E8C8D8E110CC00FB607FCFACF6F
:10063000E889F989808185FFF5CFCE010E94C1024A
:10064000F1CFEB8DEC0FFD2FF11DE35AFF4FF08240
:100650009FB7F8940B8FEA89FB8980818062CFCFA6
:10066000CF93DF93EC01888D8823B9F0AA89BB89E9
:10067000E889F9898C9185FD03C0808186FD0DC0D4
:100680000FB607FCF7CF8C9185FFF2CF808185FFF5
:10069000EDCFCE010E94C102E9CFDF91CF91089545
:1006A0008F929F92AF92BF92FF920F931F93CF931F
:1006B000DF93FC01F0808BE08F1508F44AC0828143
:1006C00008E512E0081B110987FD1395000F111FA3
:1006D000000F111F8181C8E8D0E0C81BD10987FD38
:1006E000D395CC0FDD1FCC0FDD1F4E010D2E000C5E
:1006F000AA08BB089801012E000C440B550B2819C1
:1007000039094A095B09DB010E944C1324EB30E0F4
:1007100040E050E00E942213820E931EA41EB51EDC
:100720008C169D062CF0E801801691060CF4E4016D
:100730002297CC0FDD1F2FB7F8948F2D90E0FC018E
:10074000EE0FFF1FE80FF91FED5CFC4FD283C18352
:100750002FBFDF91CF911F910F91FF90BF90AF906E
:100760009F908F9008951F93CF93DF93EC01162FE6
:1007700088818C3008F04EC061E0812F0E943001EA
:100780008881282F30E0F901EE0FFF1FE20FF31FE1
:10079000ED5CFC4F1F736081607C612B608319826C
:1007A0001A822CE0622F0E94F213829FB001112462
:1007B00030E020E0AB01420F531FFA01EE0FFF1FA4
:1007C000E40FF51FED5CFC4F908196FD16C02F5F86
:1007D0003F4F2C30310571F781110FC0109280000E
:1007E00082E0809381001092850010928400B19A7B
:1007F00080916F00826080936F00E8818E2F90E07F
:10080000FC01EE0FFF1FE80FF91FED5CFC4F80812C
:10081000806480838881DF91CF911F91089508952E
:100820002091BB01260F3327331F21323105ECF411
:1008300020916C02FC0190E080E0243069F082E0BD
:100840000895A091BB012191AC0145565E4FA40FC4
:10085000B52FB11D2C930196861798F38091BB019B
:10086000680F6093BB0180E0089581E008951092C5
:100870006C0281E080936B021092460261E082E19B
:100880000E94020161E083E10E940201E9EBF0E0D5
:1008900080818E7F808380818D7F808388E48093B8
:1008A000B80085E48093BC000895CF93DF9391E076
:1008B00090939A018823B9F0C091B800D091BA0002
:1008C0008091BC008A7B8093BC0060E082E10E9442
:1008D000020160E083E10E9402010E943704D0938C
:1008E000BA00C093B800DF91CF9108958F929F9284
:1008F000AF92BF92CF92DF92EF92FF920F931F932E
:10090000CF93DF93D0919502D13208F0D7C0182F42
:10091000C09194020E9481016B017C0180916C0264
:1009200081116BC082E080936C0210936B028FEF99
:1009300080936A0210926902D0936802A4E7B2E041
:10094000E8E4F2E080E0D81391C010924702809171
:100950004702CC0FC82BC0934702809146028130DA
:1009600009F088C0109246020E9481016B017C014F
:10097000809147028093BB0080916E0290916F023C
:10098000A0917002B0917102892B8A2B8B2BA1F060
:100990000E94810100916E0210916F0220917002FD
:1009A000309171026C197D098E099F09061717078E
:1009B0002807390708F442C08091BC0083FDD8CFD6
:1009C00085EC8093BC000E9481016B017C018091C9
:1009D0006C02823009F450C080916A028F3F09F4A2
:1009E0006FC080916A02803209F46CC080916A0203
:1009F000803309F469C084E026C080916E02909132
:100A00006F02A0917002B0917102892B8A2B8B2BFF
:100A100009F484CF0E94810180906E0290906F0251
:100A2000A0907002B09071026C197D098E099F0927
:100A300086169706A806B90608F070CF80916D0259
:100A40000E94550485E01092730210929502109254
:100A50007202DF91CF911F910F91FF90EF90DF9085
:100A6000CF90BF90AF909F908F9008959D9191935C
:100A70008F5F69CF85EEA5CF80916E0290916F0256
:100A8000A0917002B0917102892B8A2B8B2B09F4F3
:100A90009ECF0E94810100916E0210916F02209101
:100AA0007002309171026C197D098E099F09061739
:100AB00017072807390708F08ACFC0CF81E0C3CFD6
:100AC00080E0C1CF82E0BFCF83E0BDCFCF92DF9285
:100AD000EF92FF920F931F93CF93DF93D82FC62FE0
:100AE000613208F098C00E9481016B017C01809105
:100AF0006C0281116BC081E080936C0280936B0269
:100B00009FEF90936A02109269029C0F9093680283
:100B10008093470280914702DD0FD82BD093470284
:100B200080914602813009F078C0109246020E94FE
:100B300081016B017C01809147028093BB00809111
:100B40006E0290916F02A0917002B0917102892B98
:100B50008A2B8B2BA1F00E94810100916E021091D3
:100B60006F0220917002309171026C197D098E091B
:100B70009F09061717072807390708F448C080910E
:100B8000BC0083FDD8CF85EC8093BC000E9481011E
:100B90006B017C0180916C02813009F440C080912E
:100BA00069028C1710F4C0916902E8E4F2E0A6E251
:100BB000B2E080E08C1355C08C2FDF91CF911F9154
:100BC0000F91FF90EF90DF90CF90089580916E028B
:100BD00090916F02A0917002B0917102892B8A2BC3
:100BE0008B2B09F484CF0E94810100916E02109139
:100BF0006F0220917002309171026C197D098E098B
:100C00009F09061717072807390708F070CF80914A
:100C10006D020E945504C0E0CFCF85EEB5CF809124
:100C20006E0290916F02A0917002B0917102892BB7
:100C30008A2B8B2B09F4AECF0E94810100916E02AA
:100C400010916F0220917002309171026C197D0930
:100C50008E099F09061717072807390708F09ACF4A
:100C6000D6CF91919D938F5FA5CF0895E091E40138
:100C70008091E301E81730F4F0E0EA5DFD4F8081F8
:100C800090E008958FEF9FEF08959091E401809197
:100C9000E3012FEF3FEF981748F4E92FF0E0EA5D0A
:100CA000FD4F208130E09F5F9093E401C9010895DA
:100CB0008091E3019091E401891B990B0895CF92F3
:100CC000DF92EF92FF920F931F93CF93DF937C01FC
:100CD000CB018A0120917202222389F0EB016B0182
:100CE000C40ED51ECC15DD0569F06991D701ED91D3
:100CF000FC910190F081E02DC7010995F3CF642F9D
:100D00000E941004C801DF91CF911F910F91FF90B5
:100D1000EF90DF90CF900895CF93DF931F92CDB7E0
:100D2000DEB76983209172022223F9F020919502A7
:100D3000203258F021E030E0FC013383228390E040
:100D400080E00F90DF91CF91089580917302E82F9A
:100D5000F0E0EC58FD4F998190838F5F8093730290
:100D60008093950281E090E0ECCF61E0CE010196A6
:100D70000E941004F7CFFC01248131E0309372020D
:100D80002093940210927302109295028385682B2F
:100D90008AE693E00E948C0681E00C94760490E051
:100DA00080E00895862F0C94D900862F642F0C9430
:100DB0000201862F642F0C943001EF92FF920F9363
:100DC0001F93CF93DF93EC018B017C0183E7E80E47
:100DD000F11CD7018D919C91FE01E159FF4F2081BB
:100DE00031E03093720220939402109273021092B9
:100DF0009502DC01ED91FC910190F081E02D0995C7
:100E0000FE01E059FF4F8081823058F0F701808168
:100E10009181DC01ED91FC910190F081E02D612F39
:100E2000099581E00E947604CF58DF4F088319832B
:100E3000DF91CF911F910F91FF90EF90089521E0E6
:100E400030E002C0220F331F6A95E2F7FC01EF5831
:100E5000FF4F60817181442341F0262B372B318372
:100E60002083608171810C94DD06209530952623C6
:100E70003723F5CF0F931F93CF938C01C62F0E947A
:100E8000BB066C2F6460C8010E94BB066C2F6B7F91
:100E9000C8010E94BB0683EC90E00197F1F7CF9167
:100EA0001F910F9108950F931F93CF93DF938C01A0
:100EB000D62FC42F607F642B0E943A0780E1D89F11
:100EC000B00111246C2BC801DF91CF911F910F91BC
:100ED0000C943A0740E061E08EE593E00E945307EE
:100EE0008BE39FE10197F1F70895CF93DF93CDB79F
:100EF000DEB728970FB6F894DEBF0FBECDBF98E0DF
:100F0000EEE1F1E0DE01119601900D929A95E1F784
:100F100090916603961708F46FEF262F30E0220FAA
:100F2000331F41E050E04C0F5D1F240F351FF901C6
:100F30006081680F606840E08EE593E028960FB608
:100F4000F894DEBF0FBECDBFDF91CF910C94530755
:100F500041E00E94530781E090E00895CF92DF9234
:100F6000EF92FF920F931F93CF93DF93EC0181E0F9
:100F700090E07C0102C0EE0CFF1C6A95E2F76E0166
:100F800080E7C80ED11CD6016C91613208F060E296
:100F9000FE01E159FF4F80810E9466051092E40135
:100FA0008093E301CD58DF4F88819981DC01ED9179
:100FB000FC910284F385E02D09958C01F601808176
:100FC000823060F088819981DC01ED91FC9102848E
:100FD000F385E02D099520E0022B182B0E211F210F
:100FE00081E090E00E151F0511F090E080E0DF91A8
:100FF000CF911F910F91FF90EF90DF90CF900895C8
:10100000FB0101900020E9F73197AF01461B570B18
:10101000DC01ED91FC910280F381E02D09948F9227
:101020009F92AF92BF920F931F93CF93DF93CDB751
:10103000DEB7A1970FB6F894DEBF0FBECDBF19A2E1
:10104000423008F44AE08E010F5D1F4F842E912C30
:10105000B12CA12CA50194010E948B13E62FB9019C
:10106000CA01EA3004F5E05DD801EE938D01232B2F
:10107000242B252B79F790E080E0109729F0BD0113
:1010800086E992E00E940008A1960FB6F894DEBFB0
:101090000FBECDBFDF91CF911F910F91BF90AF9049
:1010A0009F908F900895E95CDFCFCF92DF92EF920F
:1010B000FF92CF93DF936B017C016DE286E992E0B2
:1010C0000E94E302EC0166277727CB016C197D09AA
:1010D0008E099F094AE00E940F088C0F9D1FDF9127
:1010E000CF91FF90EF90DF90CF900895BC01990FC2
:1010F000880B990B97FD0C9455084AE00C940F0847
:101100000F931F93CF93DF93EC0188819981009710
:1011100059F02A813B812617370730F081E0DF91B3
:10112000CF911F910F9108958B016F5F7F4F0E94A8
:101130002915009759F0998388831B830A832C8192
:101140003D81232B59F7FC011082E8CF80E0E7CFE7
:1011500085ED8093BC0080916E0290916F02A0910A
:101160007002B09171020796A11DB11D23E0B695E2
:10117000A795979587952A95D1F72091BC0024FDD6
:1011800003C010926C02089540916E0250916F025C
:101190006091700270917102452B462B472B69F3C9
:1011A0000097A105B10541F02AE22A95F1F700C0A8
:1011B0000197A109B109E1CF80916D020C9455040A
:1011C0001F920F920FB60F9211242F933F938F937C
:1011D0009F93AF93BF9380911E0290911F02A091A5
:1011E0002002B091210230911D0223E0230F2D3700
:1011F00058F50196A11DB11D20931D0280931E027A
:1012000090931F02A0932002B093210280912202AA
:1012100090912302A0912402B09125020196A11D74
:10122000B11D8093220290932302A0932402B093D5
:101230002502BF91AF919F918F913F912F910F9078
:101240000FBE0F901F90189526E8230F0296A11D40
:10125000B11DD2CF1F920F920FB60F9211242F9370
:101260003F934F935F936F937F938F939F93AF932E
:10127000BF93EF93FF9386E992E00E94C102FF9132
:10128000EF91BF91AF919F918F917F916F915F91FE
:101290004F913F912F910F900FBE0F901F90189577
:1012A0001F920F920FB60F9211242F938F939F933B
:1012B000EF93FF93E091A602F091A7028081E09165
:1012C000AC02F091AD0282FD1BC090818091AF0213
:1012D0008F5F8F732091B002821741F0E091AF02CF
:1012E000F0E0EA56FD4F958F8093AF02FF91EF91AA
:1012F0009F918F912F910F900FBE0F901F90189577
:101300008081F4CF1F920F920FB60F9211242F936A
:101310003F934F935F936F937F938F939F93AF937D
:10132000BF93CF93DF93EF93FF938091DE01C09142
:101330005703D0E087FF24C01092850010928400EC
:101340008091DE018F5F8093DE018091DE01082EA7
:10135000000C990B8C179D0724F48091DE018C30D2
:10136000C4F18091840090918500049680349C495A
:1013700008F47AC08091840090918500049676C02C
:101380008091DE01082E000C990B8C179D07C4F686
:10139000E091DE018E2FEE0F990BFC01EE0FFF1F87
:1013A000E80FF91FED5CFC4F808186FFC9CFE0910B
:1013B000DE018E2FEE0F990BFC01EE0FFF1FE80FE1
:1013C000F91FED5CFC4F808160E08F730E94020189
:1013D000B7CF2091840030918500E091DE018E2FFF
:1013E000EE0F990BFC01EE0FFF1FE80FF91FED5CEC
:1013F000FC4F81819281820F931F9093890080938B
:101400008800E091DE018E2FEE0F990BFC01EE0FAC
:10141000FF1FE80FF91FED5CFC4F808186FF11C0B4
:10142000E091DE018E2FEE0F990BFC01EE0FFF1FF6
:10143000E80FF91FED5CFC4F808161E08F730E9423
:101440000201FF91EF91DF91CF91BF91AF919F91F9
:101450008F917F916F915F914F913F912F910F905D
:101460000FBE0F901F90189580E49CE9909389001F
:10147000809388008FEF8093DE01E3CF1F920F925D
:101480000FB60F9211242F933F934F935F936F9357
:101490007F938F939F93AF93BF93EF93FF9380912D
:1014A000B900887F803609F44AC0F0F5883209F423
:1014B000A7C018F5803109F49BC0B8F4882309F45B
:1014C000F9C0883009F494C0FF91EF91BF91AF91BA
:1014D0009F918F917F916F915F914F913F912F914C
:1014E0000F900FBE0F901F901895883109F488C097
:1014F000803251F780936A0214C0803409F49DC091
:1015000040F48033B9F38833F9F680936A0285ECAE
:10151000B0C0803509F485C0883509F496C0883498
:1015200099F60E94A808D0CF883909F48CC038F504
:10153000883729F050F4883611F0803729F683E097
:1015400080936C021092DD0157C0883809F47BC08B
:10155000803919F0803809F0B7CF8091DD018032F1
:1015600008F071C0E091DD0181E08E0F8093DD0114
:101570008091BB00F0E0E354FE4F80833DC0803B90
:1015800039F0E0F4803A09F479C0883A09F09CCF48
:1015900084E080936C021092BC011092BB01E09138
:1015A000E101F091E20109958091BB0181110FC029
:1015B00081E08093BB0110929B0109C0803C09F43B
:1015C000A6CF883C09F4A3CF883B09F07DCFE091FA
:1015D000BC0181E08E0F8093BC01F0E0E556FE4F28
:1015E00080818093BB009091BC018091BB0129C098
:1015F000809147028093BB0085EC8093BC0064CF50
:101600009091690280916802981758F5E0916902FB
:1016100081E08E0F80936902F0E0E85BFD4F8081EE
:10162000E9CFE091690281E08E0F80936902809199
:10163000BB00F0E0E85BFD4F8083909169028091F0
:1016400068029817C8F285E8D8CFE091690281E076
:101650008E0F809369028091BB00F0E0E85BFD4F44
:10166000808380916B0281115CCF81E08093460280
:1016700084EA8093BC0010926C0226CF85EC8093A4
:10168000BC0010926C028091DD01803230F4E09158
:10169000DD01F0E0E354FE4F10826091DD0170E067
:1016A000E091DF01F091E0018DEB91E0099510925E
:1016B000DD010ACF10926A0234CFEF92FF920F93AE
:1016C0001F93CF93DF93EC017B01198218821B8259
:1016D0001A821D821C82FB0101900020E9F73197DC
:1016E0008F01061B170BB8010E94800828813981E1
:1016F000811113C02115310519F0C9010E94A014F0
:10170000198218821D821C821B821A82DF91CF915E
:101710001F910F91FF90EF9008951D830C83B701E7
:10172000C901DF91CF911F910F91FF90EF900C9421
:10173000F815109299021092980288EE93E0A0E0BA
:10174000B0E080939A0290939B02A0939C02B09386
:101750009D022AE231E0309397022093960225EC15
:1017600030E03093A3022093A20224EC30E03093C7
:10177000A5022093A40220EC30E03093A70220932E
:10178000A60221EC30E03093A9022093A80222ECBB
:1017900030E03093AB022093AA0226EC30E0309385
:1017A000AD022093AC021092AF021092B0021092E0
:1017B000B1021092B20210926D0310926C038093EA
:1017C0006E0390936F03A0937003B09371038CE347
:1017D00091E090936B0380936A0360E671E081EF80
:1017E00093E00E945D0B68E971E08BEE93E00E944C
:1017F0005D0B1092780310927C0310927B03109281
:101800007D03E2E9F3E0108214821382158236969A
:1018100083E0EE3CF807B9F784E091E09093D903B8
:101820008093D80380E091E09093DB038093DA0308
:1018300084E08093DC038093DD0388E091E0909363
:10184000D7038093D6038AE090E09093DF038093E0
:10185000DE0384EF91E09093E1038093E003109224
:10186000E4031092E3031092D2031092D303109278
:10187000D4031092D5031092E2038AE591E090938D
:1018800077038093760381E28093E50381E0809380
:10189000E6038AE693E09093EA038093E9031092CB
:1018A0006103109260038EE491E090935F03809354
:1018B0005E0387E28093620380E18093670382E0A6
:1018C0008093680310926903809157038C3048F528
:1018D00091E0980F9093570380935B0390E0FC0195
:1018E000EE0FFF1FE80FF91FED5CFC4F88EB9BE04C
:1018F00092838183809157038C30B8F491E0980FE4
:10190000909357038093580390E0FC01EE0FFF1F64
:10191000E80FF91FED5CFC4F88EB9BE0928381831D
:1019200008958FEF80935B03E5CF8FEF809358038B
:101930000895CF93DF9300D0CDB7DEB7789484B508
:10194000826084BD84B5816084BD85B5826085BDBB
:1019500085B5816085BD80916E00816080936E0049
:10196000109281008091810082608093810080913B
:1019700081008160809381008091800081608093EC
:1019800080008091B10084608093B1008091B000AC
:1019900081608093B00080917A00846080937A00A7
:1019A00080917A00826080937A0080917A008160D1
:1019B00080937A0080917A00806880937A001092F8
:1019C000C1001092E4011092E30110927302109290
:1019D00095020E94370481E492E09093E2018093A3
:1019E000E10182E492E09093E0018093DF016FEFE8
:1019F0007FEF86E793E00E94DD066091E6036132A7
:101A000008F060E28091E5030E9466051092E4010F
:101A10008093E3018091E9039091EA03DC01ED9169
:101A2000FC910284F385E02D09959093E80380935F
:101A3000E7038091E6038230B8F08091E90390914A
:101A4000EA03DC01ED91FC910284F385E02D099518
:101A500020E0382F8091E7039091E803822B932BAD
:101A60009093E8038093E7030E94D8016093EE010E
:101A70007093EF018093F0019093F101E091A60241
:101A8000F091A70282E08083E091A202F091A3028C
:101A90001082E091A402F091A5028FEC8083109255
:101AA000AE02E091AA02F091AB0286E08083E09161
:101AB000A802F091A902808180618083E091A80250
:101AC000F091A902808188608083E091A802F09162
:101AD000A902808180688083E091A802F091A90228
:101AE00080818F7D80831092E4011092E301109237
:101AF0007302109295020E94370481E492E0909361
:101B0000E2018093E10182E492E09093E00180930E
:101B1000DF011092630380916803823018F098E02F
:101B2000909363038093660362E370E080E090E04B
:101B30000E94A601609169038EE593E00E94BB06B6
:101B400068EE73E080E090E00E94A60160E38EE51D
:101B500093E00E943A070BE416E4C8010197F1F7FD
:101B600060E38EE593E00E943A07C8010197F1F720
:101B700060E38EE593E00E943A0783E592E00197E7
:101B8000F1F760E28EE593E00E943A07609163030B
:101B9000606240E08EE593E00E94530784E080930A
:101BA000640340E06CE08EE593E00E9453070E94DE
:101BB0006A0782E08093650340E066E08EE593E08B
:101BC0000E94530740E062E08EE593E00E945307D5
:101BD0008BE39FE10197F1F788E08093690360E070
:101BE0008EE593E00E94BB0661E08AE00E9430012E
:101BF00061E08CE00E94300161E088E00E943001E9
:101C000063E070E08BE593E00E94B30370E060E076
:101C10008BE593E00E94500367E070E088E593E075
:101C20000E94B30370E060E088E593E00E945003F7
:101C300060E084E00E94300160E086E00E943001B4
:101C400061E08DE00E94300160E089E00E94300197
:101C500061E08BE00E94300160E081E10E94300190
:101C600061E082E00E94300116E0A12E11E01093A5
:101C7000E2030E94D801C090D203D090D303E09039
:101C8000D403F090D503AB01BC014C195D096E097A
:101C90007F098091DE039091DF03B0E0A0E084171C
:101CA0009507A607B70708F09AC200E08091DD0308
:101CB000081708F057C0802E912CE091DA03F091BC
:101CC000DB03E80DF91D40E0608186E793E00E94A8
:101CD0001F07C12CD12C7601C394002E04C0CC0C5C
:101CE000DD1CEE1CFF1C0A94D2F73601C094D09480
:101CF000B12C8091DC03B81630F5EB2CF12CE0917F
:101D0000D803F091D903EE0DFF1D608186E793E0C3
:101D10000E94AE07F7013496892B61F4EE0FFF1F86
:101D2000EA58FC4F8081918186299729918380838D
:101D3000B394DFCFEE0FFF1FEA58FC4F80819181F3
:101D40008C219D21F3CF8091DA039091DB03880EE3
:101D5000991E41E0D4016C9186E793E00E941F0731
:101D60000F5FA4CF66E7C62E63E0D62E7601F7019B
:101D7000878D90A1892B31F4148E2FEF3FEF368F92
:101D8000258F11A236E0E30EF11C82EBE81683E00A
:101D9000F80669F700E08091DC03081708F052C0EC
:101DA000B12C802E912C880C991CD401A258BC4FC8
:101DB0004D012091DD03B21608F042C0F4016081AC
:101DC00071810B2C02C0769567950A94E2F7029F09
:101DD000900111242B0D311DE6E7F3E080E0458DE5
:101DE000568D2417350709F455C38F5F36968A3010
:101DF000B1F760FF23C0E6E7F3E090E080E0448DB8
:101E0000411117C0E091D603F091D703E20FF31F01
:101E10004081A89EF001A99EF00D1124EA58FC4FC4
:101E2000448F368F258F10A2178E61E00E94E40147
:101E300005C0019636968A30910509F7B394B9CF5B
:101E40000F5FA9CF00E0D60191968C918111082FE8
:101E5000B6E0CB0ED11CEC14FD04A9F70E94D8010A
:101E60006093D2037093D3038093D4039093D503EC
:101E7000002309F4B4C180919703882309F4AFC10A
:101E80008091950390919603019709F0A8C18091E4
:101E9000920380931C0260E080E00E94750765E673
:101EA00071E08EE593E00E94000880911C02882377
:101EB000C1F1E090EF03F090F003833209F493C195
:101EC00089831A82EFEFEE1AFE0AB7018BEE93E0D8
:101ED0000E948008882399F02091EB033091EC0355
:101EE0008091EF039091F003BE016F5F7F4F820FEF
:101EF000931F0E94F815F092F003E092EF03809197
:101F00001A0290911B02019690931B0280931A0271
:101F100061E00E94750764E771E08EE593E00E943E
:101F200000080E94D8016B017C01C0921602D09279
:101F30001702E0921802F092190286E992E00E94DC
:101F4000A1021816190664F486E992E00E947F0245
:101F5000833709F08EC18091150281278093150285
:101F6000109210021092110210921202109213029B
:101F70001092140261E085E00E94300160E085E08B
:101F80000E94020164E170E080E090E00E94A601FE
:101F900061E085E00E9402018BE990E00197F1F792
:101FA00060E085E00E94300141E1842E47E2942EFA
:101FB00085E00E94D900892B09F0C8C1F1E08F1A91
:101FC0009108B1F78091080290910902A0910A024C
:101FD000B0910B028093040290930502A093060235
:101FE000B093070240900C0250900D0260900E02D8
:101FF00070900F0240920002509201026092020221
:10200000709203028EE00E946C014C019093FF01DC
:102010008093FE018FE00E946C019093FD018093FC
:10202000FC0161E0ADEB8A16A2E09A060CF460E0D8
:1020300082E00E94020180911502882371F089E0FC
:102040000E94D9009093FB018093FA0161E001970F
:1020500009F060E08BE00E94020184E00E94D90058
:102060004C019093F9018093F80186E00E94D90019
:102070009093F7018093F6018114910439F4209133
:10208000F50164EB70E0222309F4F4C1009709F034
:10209000D3C18091F50181114EC270E060E088E506
:1020A00093E00E9450031093F50181E10E946C01BE
:1020B0009093F3018093F201813092400CF0DFC1E4
:1020C0001092ED011092EC01C301B2010E94BC1309
:1020D0002B0161E03FE1431651040CF460E08DE018
:1020E0000E9402018091EE019091EF01A091F00118
:1020F000B091F101C81AD90AEA0AFB0A89EEC8169A
:1021000083E0D806E104F10408F45CC06AE070E002
:1021100080E090E00E94A601C2010E94760864E976
:1021200071E086E992E00E940008609104027091DB
:10213000050280910602909107020E94BC13CB0118
:102140000E94760864E971E086E992E00E94000846
:102150008091FC019091FD010E94760864E971E094
:1021600086E992E00E9400088091FE019091FF01B3
:102170000E94760864E971E086E992E00E94000816
:102180006091EC017091ED01072E000C880B990B0A
:1021900097FF7CC10E94550866E971E086E992E0EC
:1021A0000E9400088091160290911702A0911802D7
:1021B000B09119028093EE019093EF01A093F0018A
:1021C000B093F101A0E0B0E0AB2B09F450CD0E9438
:1021D000AD02882309F44ACD0E94000045CD10923B
:1021E000E20380E056CE8091F5039091F603E81665
:1021F000F906C1F48091EB039091EC036091F10337
:102200007091F203009709F447C16115710539F423
:10221000EF2809F44FC1FC01808190E048C10E9481
:10222000EF1545C10E946A0760E080E00E947507D3
:1022300064E871E08EE593E00E94000870E060E0E1
:102240008BE593E00E94500368EE73E080E090E03D
:102250000E94A60110921B0210921A024DC1109208
:10226000F0031092EF0368E971E0C9010E94F815CC
:1022700058CE9091EA01833309F447C014F58133B5
:1022800061F18233B9F160E08AE00E940201B0900E
:10229000EA0108E06B2D661F6627661F88E00E9432
:1022A0000201BB0C61E08CE00E94020160E08CE066
:1022B0000E940201015071F761E08AE00E94020170
:1022C0004FCE8533C1F164F18633E9F68091E501A3
:1022D00081278093E501905808C08091EB01812708
:1022E0008093EB01882321F09C5F9093EA01CBCF90
:1022F0009450FBCF8091E90181278093E9018823E5
:1023000011F0985FF2CF9850F0CF8091E8018127CB
:102310008093E801882311F0905FE7CF9051E5CFDB
:102320008091E70181278093E701882311F0905E77
:10233000DCCF9052DACF8091E60181278093E601CD
:10234000882311F0905CD1CF9054CFCF31E1832E10
:1023500037E2932E85E00E94D900019729F421E00D
:10236000821A9108B9F72ECE28E2222E312C07E0EE
:10237000B12C91E1892E97E2992E85E00E94D90037
:10238000892B29F431E0831A9108B9F71BCE0E94FA
:1023900081012B013C0181E1882E87E2982E85E0A6
:1023A0000E94D900019729F481E0881A9108B9F7B1
:1023B00009CE0E948101641975098609970969325D
:1023C00071058105910570F0EB2DF0E0E85FFD4FA0
:1023D000808521E030E0002E01C0220F0A94EAF748
:1023E000822B8087011126C0B39407E091E0291A5F
:1023F000310809F0BECF6091100270E090E080E0FB
:102400000E94BC12609308027093090280930A0232
:1024100090930B026091120270E090E080E00E94C5
:10242000BC1260930C0270930D0280930E02909385
:102430000F02C8CD0150DACFB1E08B16910409F03C
:102440007FC0019709F031CE8091F501882309F40E
:102450002CCE64EB70E088E593E00E9450038091FD
:10246000F401882309F421CE1092F5011092F401B1
:1024700070E060E088E593E00E94500316CE21E012
:1024800030E03093ED012093EC011ECE4AE00E9433
:102490000F0882CE6170CACC6115710559F0EF2822
:1024A00049F0DB018C9190E0919581959109892B00
:1024B00009F0B8CE0E946A0760E080E00E947507CC
:1024C00066E771E08EE593E00E94000864EB70E03F
:1024D0008BE593E00E94500368EE73E080E090E0AB
:1024E0000E94A60110921B0210921A0270E060E096
:1024F0008BE593E00E94500370E060E08BEE93E088
:102500000E9480082091EB033091EC038111A7CE4B
:102510002115310519F0C9010E94A0141092EC0395
:102520001092EB031092F0031092EF031092EE035F
:102530001092ED03F6CCB1E08B16910409F4B5CD01
:10254000892809F0B2CD8091F501882309F4ADCD39
:102550001093F401AACD8091EB039091EC030097C6
:1025600011F00E94A0148091F1039091F203009762
:1025700011F00C94A0140895E89409C097FB3EF460
:1025800090958095709561957F4F8F4F9F4F9923C0
:10259000A9F0F92F96E9BB279395F695879577953E
:1025A0006795B795F111F8CFFAF4BB0F11F460FFFE
:1025B0001BC06F5F7F4F8F4F9F4F16C0882311F056
:1025C00096E911C0772321F09EE8872F762F05C06A
:1025D000662371F096E8862F70E060E02AF09A9505
:1025E000660F771F881FDAF7880F9695879597F9FA
:1025F000089557FD9058440F551F59F05F3F71F0F3
:102600004795880F97FB991F61F09F3F79F0879559
:102610000895121613061406551FF2CF4695F1DFE2
:1026200008C0161617061806991FF1CF8695710572
:10263000610508940895E894BB2766277727CB01A6
:1026400097F90895052E97FB1EF400940E94391304
:1026500057FD07D00E948B1307FC03D04EF40C9457
:10266000391350954095309521953F4F4F4F5F4F0F
:10267000089590958095709561957F4F8F4F9F4FEE
:1026800008950E94AD13A59F900DB49F900DA49F37
:10269000800D911D11240895B7FF0C9441130E94E1
:1026A0004113821B930B08952F923F924F925F929A
:1026B0006F927F928F929F92AF92BF92CF92DF9252
:1026C000EF92FF920F931F93CF93DF93CDB7DEB7B7
:1026D000CA1BDB0B0FB6F894DEBF0FBECDBF09944B
:1026E0002A88398848885F846E847D848C849B84A2
:1026F000AA84B984C884DF80EE80FD800C811B81B0
:10270000AA81B981CE0FD11D0FB6F894DEBF0FBEDE
:10271000CDBFED010895A1E21A2EAA1BBB1BFD013E
:102720000DC0AA1FBB1FEE1FFF1FA217B307E407B0
:10273000F50720F0A21BB30BE40BF50B661F771F08
:10274000881F991F1A9469F76095709580959095E8
:102750009B01AC01BD01CF010895A29FB001B39FC1
:10276000C001A39F700D811D1124911DB29F700D9A
:10277000811D1124911D08950E94C3136894B11105
:102780000C941C1308950E94011388F09F5798F031
:10279000B92F9927B751B0F0E1F0660F771F881F66
:1027A000991F1AF0BA95C9F714C0B13091F00E9480
:1027B0001B13B1E008950C941B13672F782F882703
:1027C000B85F39F0B93FCCF3869577956795B395A7
:1027D000D9F73EF490958095709561957F4F8F4F16
:1027E0009F4F0895991B79E004C0991F961708F030
:1027F000961B881F7A95C9F780950895EE0FFF1FE5
:102800000590F491E02D09940F931F93CF93DF93DC
:102810008230910510F482E090E0E091F903F091AC
:10282000FA0330E020E0B0E0A0E0309799F4211501
:10283000310509F44AC0281B390B24303105D8F57D
:102840008A819B816115710589F1FB0193838283E4
:10285000FE0111C04081518102811381481759073F
:10286000E0F04817590799F4109761F012960C930D
:10287000129713961C933296CF01DF91CF911F913F
:102880000F9108950093F9031093FA03F4CF2115E3
:10289000310551F04217530738F0A901DB019A01C5
:1028A000BD01DF01F801C1CFEF01F9CF9093FA0329
:1028B0008093F903CDCFFE01E20FF31F8193919333
:1028C0002250310939832883D7CF2091F7033091E3
:1028D000F803232B41F420911A0130911B0130930E
:1028E000F8032093F7032091180130911901211565
:1028F000310541F42DB73EB740911C0150911D01A7
:10290000241B350BE091F703F091F803E217F3076E
:10291000A0F42E1B3F0B2817390778F0AC014E5F4F
:102920005F4F2417350748F04E0F5F1F5093F80391
:102930004093F703819391939FCFF0E0E0E09CCF29
:10294000CF93DF930097E9F0FC0132971382128254
:10295000A091F903B091FA03ED0130E020E0109767
:10296000A1F420813181820F931F2091F7033091D0
:10297000F8032817390709F061C0F093F803E093D2
:10298000F703DF91CF910895EA01CE17DF07E8F54D
:102990004A815B819E0141155105B1F7E901FB8335
:1029A000EA8349915991C40FD51FEC17FD0761F4D3
:1029B000808191810296840F951FE9019983888314
:1029C000828193819B838A83F0E0E0E012968D916F
:1029D0009C9113970097B9F52D913C911197CD01DA
:1029E0000296820F931F2091F7033091F803281766
:1029F000390739F6309751F51092FA031092F9031E
:102A0000B093F803A093F703BCCFD383C283408174
:102A10005181840F951FC817D90761F44E5F5F4F2E
:102A200088819981480F591F518340838A819B81F6
:102A3000938382832115310509F0B0CFF093FA0317
:102A4000E093F9039ECFFD01DC01C0CF1382128217
:102A5000D7CFB0E0A0E0EFE2F5E10C9456138C0183
:102A6000009751F4CB010E9404148C01C801CDB72A
:102A7000DEB7E0E10C947213FC01E60FF71F9C0136
:102A800022503109E217F30708F49DC0D901CD9116
:102A9000DC911197C617D70798F0C530D10530F3F0
:102AA000CE0104978617970708F3C61BD70B22970A
:102AB000C193D1936D937C93CF010E94A014D6CF84
:102AC0005B01AC1ABD0A4C018C0E9D1EA091F9034E
:102AD000B091FA03512C412CF12CE12C109731F5D7
:102AE0008091F7039091F8038815990509F05CC06F
:102AF0004616570608F058C08091180190911901A8
:102B0000009741F48DB79EB740911C0150911D0173
:102B1000841B950BE817F90708F055C0F093F803EC
:102B2000E093F703F90171836083A0CF8D919C91AD
:102B3000119712966C90129713967C901397A81584
:102B4000B90559F56C0142E0C40ED11CCA14DB046E
:102B500020F1AC014A195B09DA011296159780F051
:102B60006282738251834083D9016D937C93E11417
:102B7000F10471F0D7011396FC93EE93129776CF80
:102B800022968C0F9D1FF90191838083F301EFCF73
:102B9000F093FA03E093F90369CF4816590608F455
:102BA0002C017D01D3019ACFCB010E9404147C013A
:102BB000009749F0AE01B8010E94E615C8010E94D5
:102BC000A014870153CF10E000E050CFFB01DC01DF
:102BD00002C001900D9241505040D8F70895FB017A
:102BE000DC018D91019080190110D9F3990B0895A2
:102BF000FB01DC0101900D920020E1F7089510E047
:102C0000C2E6D0E004C0FE010E94FE132196C33646
:102C1000D107C9F7F894FFCF0405060700010203A6
:102C20003132334134353642373839432A30234440
:102C30000000FB038000000040001400540000006E
:102C40000000E302430270023003A1027F029302FC
:102C5000000000008C065F06CF06350658064506C4
:102C6000360600000000A8074302CF060F0400004C
:102C7000000040021F07AE073132333400656E7426
:102C800065722070617373776F7264002A00646FDD
:102C90006F72206973206F70656E2000646F6F72B1
:102CA00020697320636C6F73656420003B000D0A1C
:022CB000000022
:107E0000112484B714BE81FFF0D085E080938100F7
:107E100082E08093C00088E18093C10086E0809377
:107E2000C20080E18093C4008EE0C9D0259A86E02C
:107E300020E33CEF91E0309385002093840096BBD3
:107E4000B09BFECF1D9AA8958150A9F7CC24DD24C4
:107E500088248394B5E0AB2EA1E19A2EF3E0BF2EE7
:107E6000A2D0813461F49FD0082FAFD0023811F036
:107E7000013811F484E001C083E08DD089C08234E0
:107E800011F484E103C0853419F485E0A6D080C0E4
:107E9000853579F488D0E82EFF2485D0082F10E0AE
:107EA000102F00270E291F29000F111F8ED06801E7
:107EB0006FC0863521F484E090D080E0DECF843638
:107EC00009F040C070D06FD0082F6DD080E0C81688
:107ED00080E7D80618F4F601B7BEE895C0E0D1E017
:107EE00062D089930C17E1F7F0E0CF16F0E7DF06D8
:107EF00018F0F601B7BEE89568D007B600FCFDCFD4
:107F0000A601A0E0B1E02C9130E011968C91119780
:107F100090E0982F8827822B932B1296FA010C0160
:107F200087BEE89511244E5F5F4FF1E0A038BF0790
:107F300051F7F601A7BEE89507B600FCFDCF97BE46
:107F4000E89526C08437B1F42ED02DD0F82E2BD052
:107F50003CD0F601EF2C8F010F5F1F4F84911BD097
:107F6000EA94F801C1F70894C11CD11CFA94CF0C13
:107F7000D11C0EC0853739F428D08EE10CD085E9AC
:107F80000AD08FE07ACF813511F488E018D01DD067
:107F900080E101D065CF982F8091C00085FFFCCF94
:107FA0009093C60008958091C00087FFFCCF809118
:107FB000C00084FD01C0A8958091C6000895E0E648
:107FC000F0E098E1908380830895EDDF803219F02E
:107FD00088E0F5DFFFCF84E1DECF1F93182FE3DFCA
:107FE0001150E9F7F2DF1F91089580E0E8DFEE27F6
:047FF000FF270994CA
:027FFE00040479
:00000001FF
